{
  "contractName": "Roulette",
  "abi": [
    {
      "constant": true,
      "inputs": [
        {
          "name": "",
          "type": "uint256"
        }
      ],
      "name": "playerlist",
      "outputs": [
        {
          "name": "name",
          "type": "string"
        },
        {
          "name": "adr",
          "type": "address"
        },
        {
          "name": "pos",
          "type": "uint256"
        }
      ],
      "payable": false,
      "stateMutability": "view",
      "type": "function"
    },
    {
      "constant": true,
      "inputs": [],
      "name": "memberOfList",
      "outputs": [
        {
          "name": "",
          "type": "uint256"
        }
      ],
      "payable": false,
      "stateMutability": "view",
      "type": "function"
    },
    {
      "constant": true,
      "inputs": [],
      "name": "basePrice",
      "outputs": [
        {
          "name": "",
          "type": "uint256"
        }
      ],
      "payable": false,
      "stateMutability": "view",
      "type": "function"
    },
    {
      "constant": true,
      "inputs": [],
      "name": "playersTop",
      "outputs": [
        {
          "name": "",
          "type": "uint256"
        }
      ],
      "payable": false,
      "stateMutability": "view",
      "type": "function"
    },
    {
      "inputs": [],
      "payable": false,
      "stateMutability": "nonpayable",
      "type": "constructor"
    },
    {
      "anonymous": false,
      "inputs": [
        {
          "indexed": false,
          "name": "basePrice",
          "type": "uint256"
        },
        {
          "indexed": false,
          "name": "playersTop",
          "type": "uint256"
        },
        {
          "indexed": false,
          "name": "memberOfList",
          "type": "uint256"
        }
      ],
      "name": "InitialData",
      "type": "event"
    },
    {
      "anonymous": false,
      "inputs": [
        {
          "indexed": false,
          "name": "msg",
          "type": "string"
        },
        {
          "indexed": false,
          "name": "time",
          "type": "uint256"
        },
        {
          "indexed": false,
          "name": "state",
          "type": "bool"
        }
      ],
      "name": "MessageData",
      "type": "event"
    },
    {
      "anonymous": false,
      "inputs": [
        {
          "indexed": false,
          "name": "msg",
          "type": "string"
        },
        {
          "indexed": false,
          "name": "adr",
          "type": "address"
        },
        {
          "indexed": false,
          "name": "name",
          "type": "string"
        }
      ],
      "name": "WinnerData",
      "type": "event"
    },
    {
      "constant": true,
      "inputs": [],
      "name": "Balance",
      "outputs": [
        {
          "name": "",
          "type": "uint256"
        }
      ],
      "payable": false,
      "stateMutability": "view",
      "type": "function"
    },
    {
      "constant": false,
      "inputs": [
        {
          "name": "nameplayer",
          "type": "string"
        }
      ],
      "name": "participate",
      "outputs": [],
      "payable": true,
      "stateMutability": "payable",
      "type": "function"
    }
  ],
  "bytecode": "0x6060604052341561000f57600080fd5b670de0b6b3a7640000600081905550600360018190555060006003819055506001600260006101000a81548160ff0219169083151502179055507f7045cf9c5b36c8bc0828f18ca52f3fef16a2f882763c9085e0e76f9d5fe53e2060005460015460035460405180848152602001838152602001828152602001935050505060405180910390a17f01c12782e9664d53a342416cd51917ad7f29bb23ace05d8a1ac98ebd3ddd494d42600260009054906101000a900460ff166040518080602001848152602001831515151581526020018281038252600c8152602001807f4a7565676f2043726561646f0000000000000000000000000000000000000000815250602001935050505060405180910390a161084a806101306000396000f300606060405260043610610078576000357c0100000000000000000000000000000000000000000000000000000000900463ffffffff1680630ef678871461007d5780631d27769f146100a657806343072922146100f857806388bef758146101eb578063c7876ea414610214578063c7eacfac1461023d575b600080fd5b341561008857600080fd5b610090610266565b6040518082815260200191505060405180910390f35b6100f6600480803590602001908201803590602001908080601f0160208091040260200160405190810160405280939291908181526020018383808284378201915050505050509190505061028a565b005b341561010357600080fd5b61011960048080359060200190919050506103ab565b60405180806020018473ffffffffffffffffffffffffffffffffffffffff1673ffffffffffffffffffffffffffffffffffffffff1681526020018381526020018281038252858181546001816001161561010002031660029004815260200191508054600181600116156101000203166002900480156101da5780601f106101af576101008083540402835291602001916101da565b820191906000526020600020905b8154815290600101906020018083116101bd57829003601f168201915b505094505050505060405180910390f35b34156101f657600080fd5b6101fe6103f4565b6040518082815260200191505060405180910390f35b341561021f57600080fd5b6102276103fa565b6040518082815260200191505060405180910390f35b341561024857600080fd5b610250610400565b6040518082815260200191505060405180910390f35b6000803373ffffffffffffffffffffffffffffffffffffffff163190508091505090565b60011515600260009054906101000a900460ff1615151415610318576102b08133610406565b6001546003541015156102c6576102c56104be565b5b7f7045cf9c5b36c8bc0828f18ca52f3fef16a2f882763c9085e0e76f9d5fe53e2060005460015460035460405180848152602001838152602001828152602001935050505060405180910390a16103a8565b7f01c12782e9664d53a342416cd51917ad7f29bb23ace05d8a1ac98ebd3ddd494d42600260009054906101000a900460ff16604051808060200184815260200183151515158152602001828103825260128152602001807f4a7565676f207961207465726d696e61646f0000000000000000000000000000815250602001935050505060405180910390a1600080fd5b50565b600460205280600052604060002060009150905080600001908060010160009054906101000a900473ffffffffffffffffffffffffffffffffffffffff16908060020154905083565b60035481565b60005481565b60015481565b6001600360008282540192505081905550600354600460006003548152602001908152602001600020600201819055508060046000600354815260200190815260200160002060010160006101000a81548173ffffffffffffffffffffffffffffffffffffffff021916908373ffffffffffffffffffffffffffffffffffffffff1602179055508160046000600354815260200190815260200160002060000190805190602001906104b9929190610779565b505050565b600060018054428115156104ce57fe5b060190506004600082815260200190815260200160002060010160009054906101000a900473ffffffffffffffffffffffffffffffffffffffff1673ffffffffffffffffffffffffffffffffffffffff166108fc3073ffffffffffffffffffffffffffffffffffffffff16319081150290604051600060405180830381858888f19350505050151561055f57600080fd5b6000600260006101000a81548160ff0219169083151502179055507f7b3cac5e6a48968460862344e1059e8b32ce08b973a3413314e956d700ffa68d6004600083815260200190815260200160002060010160009054906101000a900473ffffffffffffffffffffffffffffffffffffffff166004600084815260200190815260200160002060000160405180806020018473ffffffffffffffffffffffffffffffffffffffff1673ffffffffffffffffffffffffffffffffffffffff168152602001806020018381038352600c8152602001807f47616e61646f722065733a2000000000000000000000000000000000000000008152506020018381038252848181546001816001161561010002031660029004815260200191508054600181600116156101000203166002900480156106db5780601f106106b0576101008083540402835291602001916106db565b820191906000526020600020905b8154815290600101906020018083116106be57829003601f168201915b505094505050505060405180910390a17f01c12782e9664d53a342416cd51917ad7f29bb23ace05d8a1ac98ebd3ddd494d42600260009054906101000a900460ff166040518080602001848152602001831515151581526020018281038252600f8152602001807f4a7565676f207465726d696e61646f0000000000000000000000000000000000815250602001935050505060405180910390a150565b828054600181600116156101000203166002900490600052602060002090601f016020900481019282601f106107ba57805160ff19168380011785556107e8565b828001600101855582156107e8579182015b828111156107e75782518255916020019190600101906107cc565b5b5090506107f591906107f9565b5090565b61081b91905b808211156108175760008160009055506001016107ff565b5090565b905600a165627a7a723058202082ad958703080d6e4afe5672df2f87405b51d080177dcf9268eb641d14ab3e0029",
  "source": "pragma solidity ^0.4.18;\n\ncontract Roulette {\n\n    uint public basePrice;\n    uint public playersTop;\n\n    bool state;\n    uint public memberOfList;\n\n    struct player {\n        string name;\n        address adr; // person direction\n        uint pos; // mount\n    }\n    /*Maps*/\n    mapping (uint => player) public playerlist;\n    /* Events*/\n    event InitialData (uint basePrice, uint playersTop, uint memberOfList);\n    event MessageData (string msg,uint time, bool state);\n    event WinnerData (string msg, address adr , string name);\n\n    /* Constructor */\n    function Roulette() public {                //  uint _basePrice, uint _playersTop\n      basePrice = 1 * 1000000000000000000;      // _basePrice;\n      playersTop =  3;                          //  _playersTop;\n      memberOfList = 0;\n      state = true;\n      InitialData(basePrice,playersTop,memberOfList);\n      MessageData('Juego Creado',block.timestamp,state);\n    }\n\n    /* functions of help*/\n    function addPlayerToList(string _name, address _address) private {\n        memberOfList += 1;\n        playerlist[memberOfList].pos = memberOfList;\n        playerlist[memberOfList].adr = _address;\n        playerlist[memberOfList].name = _name;\n    }\n\n    function rafflingAndfinishing() private {\n      // elect winner\n      uint winer = (block.timestamp % playersTop) + 1;\n      // reward the winner\n      playerlist[winer].adr.transfer(this.balance);\n      state = false;\n\n      WinnerData('Ganador es: ',playerlist[winer].adr,playerlist[winer].name);\n      MessageData('Juego terminado',block.timestamp,state);\n    }\n\n    function Balance() public view returns(uint) {\n      uint bal = msg.sender.balance;\n  \t\treturn bal;\n  \t}\n\n    /*Mains functions*/\n     function participate(string nameplayer) public payable {\n      if(state == true){\n        // add player to list\n        addPlayerToList(nameplayer, msg.sender);\n        if(memberOfList>=playersTop){\n          //finish the play\n          rafflingAndfinishing();\n\n        }\n        InitialData(basePrice,playersTop,memberOfList);\n      }else{\n        MessageData('Juego ya terminado',block.timestamp,state);\n        revert();\n      }\n    }\n\n\n}\n",
  "sourcePath": "/home/jkn/Escritorio/roulette/contracts/Roulette.sol",
  "compiler": {
    "name": "solc",
    "version": "0.4.19+commit.c4cbbb05.Emscripten.clang"
  },
  "schemaVersion": "1.0.1",
  "updatedAt": "2018-03-13T23:49:56.802Z"
}