{
  "contractName": "Roulette",
  "abi": [
    {
      "constant": true,
      "inputs": [
        {
          "name": "",
          "type": "uint256"
        }
      ],
      "name": "playerlist",
      "outputs": [
        {
          "name": "name",
          "type": "string"
        },
        {
          "name": "adr",
          "type": "address"
        },
        {
          "name": "pos",
          "type": "uint256"
        }
      ],
      "payable": false,
      "stateMutability": "view",
      "type": "function"
    },
    {
      "constant": true,
      "inputs": [],
      "name": "memberOfList",
      "outputs": [
        {
          "name": "",
          "type": "uint256"
        }
      ],
      "payable": false,
      "stateMutability": "view",
      "type": "function"
    },
    {
      "constant": true,
      "inputs": [],
      "name": "basePrice",
      "outputs": [
        {
          "name": "",
          "type": "uint256"
        }
      ],
      "payable": false,
      "stateMutability": "view",
      "type": "function"
    },
    {
      "constant": true,
      "inputs": [],
      "name": "playersTop",
      "outputs": [
        {
          "name": "",
          "type": "uint256"
        }
      ],
      "payable": false,
      "stateMutability": "view",
      "type": "function"
    },
    {
      "inputs": [],
      "payable": false,
      "stateMutability": "nonpayable",
      "type": "constructor"
    },
    {
      "anonymous": false,
      "inputs": [
        {
          "indexed": false,
          "name": "basePrice",
          "type": "uint256"
        },
        {
          "indexed": false,
          "name": "playersTop",
          "type": "uint256"
        },
        {
          "indexed": false,
          "name": "memberOfList",
          "type": "uint256"
        }
      ],
      "name": "InitialData",
      "type": "event"
    },
    {
      "anonymous": false,
      "inputs": [
        {
          "indexed": false,
          "name": "state",
          "type": "bool"
        }
      ],
      "name": "MessageData",
      "type": "event"
    },
    {
      "anonymous": false,
      "inputs": [
        {
          "indexed": false,
          "name": "adr",
          "type": "address"
        },
        {
          "indexed": false,
          "name": "name",
          "type": "string"
        }
      ],
      "name": "WinnerData",
      "type": "event"
    },
    {
      "constant": false,
      "inputs": [
        {
          "name": "nameplayer",
          "type": "string"
        }
      ],
      "name": "participate",
      "outputs": [],
      "payable": true,
      "stateMutability": "payable",
      "type": "function"
    }
  ],
  "bytecode": "0x6060604052341561000f57600080fd5b67016345785d8a0000600081905550600360018190555060006003819055506001600260006101000a81548160ff0219169083151502179055507f7045cf9c5b36c8bc0828f18ca52f3fef16a2f882763c9085e0e76f9d5fe53e2060005460015460035460405180848152602001838152602001828152602001935050505060405180910390a17f1fc3ea95d90bbe912226769b8541eea1c339b4f25c4a60ddc586cb7e1d104f54600260009054906101000a900460ff16604051808215151515815260200191505060405180910390a1610744806100ef6000396000f30060606040526004361061006d576000357c0100000000000000000000000000000000000000000000000000000000900463ffffffff1680631d27769f1461007257806343072922146100c457806388bef758146101b7578063c7876ea4146101e0578063c7eacfac14610209575b600080fd5b6100c2600480803590602001908201803590602001908080601f01602080910402602001604051908101604052809392919081815260200183838082843782019150505050505091905050610232565b005b34156100cf57600080fd5b6100e5600480803590602001909190505061031f565b60405180806020018473ffffffffffffffffffffffffffffffffffffffff1673ffffffffffffffffffffffffffffffffffffffff1681526020018381526020018281038252858181546001816001161561010002031660029004815260200191508054600181600116156101000203166002900480156101a65780601f1061017b576101008083540402835291602001916101a6565b820191906000526020600020905b81548152906001019060200180831161018957829003601f168201915b505094505050505060405180910390f35b34156101c257600080fd5b6101ca610368565b6040518082815260200191505060405180910390f35b34156101eb57600080fd5b6101f361036e565b6040518082815260200191505060405180910390f35b341561021457600080fd5b61021c610374565b6040518082815260200191505060405180910390f35b60011515600260009054906101000a900460ff161515148015610256575060005434145b156102cd57610265813361037a565b60015460035410151561027b5761027a610432565b5b7f7045cf9c5b36c8bc0828f18ca52f3fef16a2f882763c9085e0e76f9d5fe53e2060005460015460035460405180848152602001838152602001828152602001935050505060405180910390a161031c565b7f1fc3ea95d90bbe912226769b8541eea1c339b4f25c4a60ddc586cb7e1d104f54600260009054906101000a900460ff16604051808215151515815260200191505060405180910390a1600080fd5b50565b600460205280600052604060002060009150905080600001908060010160009054906101000a900473ffffffffffffffffffffffffffffffffffffffff16908060020154905083565b60035481565b60005481565b60015481565b6001600360008282540192505081905550600354600460006003548152602001908152602001600020600201819055508060046000600354815260200190815260200160002060010160006101000a81548173ffffffffffffffffffffffffffffffffffffffff021916908373ffffffffffffffffffffffffffffffffffffffff16021790555081600460006003548152602001908152602001600020600001908051906020019061042d929190610673565b505050565b6000600180544281151561044257fe5b060190506004600082815260200190815260200160002060010160009054906101000a900473ffffffffffffffffffffffffffffffffffffffff1673ffffffffffffffffffffffffffffffffffffffff166108fc3073ffffffffffffffffffffffffffffffffffffffff16319081150290604051600060405180830381858888f1935050505015156104d357600080fd5b6000600260006101000a81548160ff0219169083151502179055507faae9a47a0de43d131c0f645dba2b1d3192b81ce384cab8098e7b5b633a283faa6004600083815260200190815260200160002060010160009054906101000a900473ffffffffffffffffffffffffffffffffffffffff1660046000848152602001908152602001600020600001604051808373ffffffffffffffffffffffffffffffffffffffff1673ffffffffffffffffffffffffffffffffffffffff168152602001806020018281038252838181546001816001161561010002031660029004815260200191508054600181600116156101000203166002900480156106175780601f106105ec57610100808354040283529160200191610617565b820191906000526020600020905b8154815290600101906020018083116105fa57829003601f168201915b5050935050505060405180910390a17f1fc3ea95d90bbe912226769b8541eea1c339b4f25c4a60ddc586cb7e1d104f54600260009054906101000a900460ff16604051808215151515815260200191505060405180910390a150565b828054600181600116156101000203166002900490600052602060002090601f016020900481019282601f106106b457805160ff19168380011785556106e2565b828001600101855582156106e2579182015b828111156106e15782518255916020019190600101906106c6565b5b5090506106ef91906106f3565b5090565b61071591905b808211156107115760008160009055506001016106f9565b5090565b905600a165627a7a72305820a5ec7e34a3f2d599117039648d7e6c8dcce1d9ffbf3076ab6acca7b6a99a15b20029",
  "source": "pragma solidity ^0.4.18;\n\ncontract Roulette {\n\n    uint public basePrice;\n    uint public playersTop;\n\n    bool state;\n    uint public memberOfList;\n\n    struct player {\n        string name;\n        address adr;\n        uint pos;\n    }\n    mapping (uint => player) public playerlist;\n    event InitialData (uint basePrice, uint playersTop, uint memberOfList);\n    //event MessageData (string msg,uint time, bool state);\n    event MessageData (bool state);\n    event WinnerData (address adr , string name);\n\n    function Roulette() public {\n      basePrice = 1 * 100000000000000000;\n      playersTop =  3;\n      memberOfList = 0;\n      state = true;\n      InitialData(basePrice,playersTop,memberOfList);\n      MessageData(state);\n    }\n\n    /* functions of help*/\n    function addPlayerToList(string _name, address _address) private {\n        memberOfList += 1;\n        playerlist[memberOfList].pos = memberOfList;\n        playerlist[memberOfList].adr = _address;\n        playerlist[memberOfList].name = _name;\n    }\n\n    function rafflingAndfinishing() private {\n      uint winer = (block.timestamp % playersTop) + 1;\n      playerlist[winer].adr.transfer(this.balance);\n      state = false;\n\n      WinnerData(playerlist[winer].adr,playerlist[winer].name);\n      MessageData(state);\n    }\n     function participate(string nameplayer) public payable {\n      if(state == true && msg.value == basePrice){\n        addPlayerToList(nameplayer, msg.sender);\n        if(memberOfList>=playersTop){\n          rafflingAndfinishing();\n        }\n        InitialData(basePrice,playersTop,memberOfList);\n      }else{\n        MessageData(state);\n        revert();\n      }\n    }\n\n\n}\n",
  "sourcePath": "/home/jkn/Escritorio/roulette/contracts/Roulette.sol",
  "compiler": {
    "name": "solc",
    "version": "0.4.19+commit.c4cbbb05.Emscripten.clang"
  },
  "schemaVersion": "1.0.1",
  "updatedAt": "2018-03-16T21:15:04.226Z"
}